{
  "_format": "hh-sol-artifact-1",
  "contractName": "EventChain",
  "sourceName": "contracts/EventChain.sol",
  "abi": [
    {
      "inputs": [
        {
          "internalType": "string",
          "name": "eventName",
          "type": "string"
        },
        {
          "internalType": "string",
          "name": "ticketId",
          "type": "string"
        }
      ],
      "name": "mintTicket",
      "outputs": [],
      "stateMutability": "nonpayable",
      "type": "function"
    },
    {
      "inputs": [
        {
          "internalType": "string",
          "name": "",
          "type": "string"
        }
      ],
      "name": "tickets",
      "outputs": [
        {
          "internalType": "string",
          "name": "eventName",
          "type": "string"
        },
        {
          "internalType": "address",
          "name": "owner",
          "type": "address"
        },
        {
          "internalType": "bool",
          "name": "verified",
          "type": "bool"
        }
      ],
      "stateMutability": "view",
      "type": "function"
    },
    {
      "inputs": [
        {
          "internalType": "string",
          "name": "ticketId",
          "type": "string"
        }
      ],
      "name": "verifyTicket",
      "outputs": [
        {
          "internalType": "bool",
          "name": "",
          "type": "bool"
        }
      ],
      "stateMutability": "view",
      "type": "function"
    }
  ],
  "bytecode": "0x608060405234801561001057600080fd5b5061075c806100206000396000f3fe608060405234801561001057600080fd5b50600436106100415760003560e01c80630782ed5b1461004657806329ae0b7f14610062578063c1fb537014610094575b600080fd5b610060600480360381019061005b9190610419565b6100c4565b005b61007c600480360381019061007791906103d8565b6101a1565b60405161008b9392919061053f565b60405180910390f35b6100ae60048036038101906100a991906103d8565b610296565b6040516100bb9190610524565b60405180910390f35b60405180606001604052808381526020013373ffffffffffffffffffffffffffffffffffffffff16815260200160001515815250600082604051610108919061050d565b908152602001604051809103902060008201518160000190805190602001906101329291906102cd565b5060208201518160010160006101000a81548173ffffffffffffffffffffffffffffffffffffffff021916908373ffffffffffffffffffffffffffffffffffffffff16021790555060408201518160010160146101000a81548160ff0219169083151502179055509050505050565b6000818051602081018201805184825260208301602085012081835280955050505050506000915090508060000180546101da90610685565b80601f016020809104026020016040519081016040528092919081815260200182805461020690610685565b80156102535780601f1061022857610100808354040283529160200191610253565b820191906000526020600020905b81548152906001019060200180831161023657829003601f168201915b5050505050908060010160009054906101000a900473ffffffffffffffffffffffffffffffffffffffff16908060010160149054906101000a900460ff16905083565b600080826040516102a7919061050d565b908152602001604051809103902060010160149054906101000a900460ff169050919050565b8280546102d990610685565b90600052602060002090601f0160209004810192826102fb5760008555610342565b82601f1061031457805160ff1916838001178555610342565b82800160010185558215610342579182015b82811115610341578251825591602001919060010190610326565b5b50905061034f9190610353565b5090565b5b8082111561036c576000816000905550600101610354565b5090565b600061038361037e846105ae565b61057d565b90508281526020810184848401111561039b57600080fd5b6103a6848285610643565b509392505050565b600082601f8301126103bf57600080fd5b81356103cf848260208601610370565b91505092915050565b6000602082840312156103ea57600080fd5b600082013567ffffffffffffffff81111561040457600080fd5b610410848285016103ae565b91505092915050565b6000806040838503121561042c57600080fd5b600083013567ffffffffffffffff81111561044657600080fd5b610452858286016103ae565b925050602083013567ffffffffffffffff81111561046f57600080fd5b61047b858286016103ae565b9150509250929050565b61048e81610605565b82525050565b61049d81610617565b82525050565b60006104ae826105de565b6104b881856105e9565b93506104c8818560208601610652565b6104d181610715565b840191505092915050565b60006104e7826105de565b6104f181856105fa565b9350610501818560208601610652565b80840191505092915050565b600061051982846104dc565b915081905092915050565b60006020820190506105396000830184610494565b92915050565b6000606082019050818103600083015261055981866104a3565b90506105686020830185610485565b6105756040830184610494565b949350505050565b6000604051905081810181811067ffffffffffffffff821117156105a4576105a36106e6565b5b8060405250919050565b600067ffffffffffffffff8211156105c9576105c86106e6565b5b601f19601f8301169050602081019050919050565b600081519050919050565b600082825260208201905092915050565b600081905092915050565b600061061082610623565b9050919050565b60008115159050919050565b600073ffffffffffffffffffffffffffffffffffffffff82169050919050565b82818337600083830152505050565b60005b83811015610670578082015181840152602081019050610655565b8381111561067f576000848401525b50505050565b6000600282049050600182168061069d57607f821691505b602082108114156106b1576106b06106b7565b5b50919050565b7f4e487b7100000000000000000000000000000000000000000000000000000000600052602260045260246000fd5b7f4e487b7100000000000000000000000000000000000000000000000000000000600052604160045260246000fd5b6000601f19601f830116905091905056fea2646970667358221220848c276122c497246c8f9b6fb96872d9f18a4c100e3b6f0706fb743268292b1064736f6c63430008000033",
  "linkReferences": {},
  "deployedLinkReferences": {}
}